{
  "contractName": "paymentProccesor",
  "abi": [
    {
      "inputs": [
        {
          "internalType": "address",
          "name": "_contractOwner",
          "type": "address"
        },
        {
          "internalType": "address",
          "name": "_usdt",
          "type": "address"
        }
      ],
      "stateMutability": "nonpayable",
      "type": "constructor"
    },
    {
      "anonymous": false,
      "inputs": [
        {
          "indexed": true,
          "internalType": "address",
          "name": "from",
          "type": "address"
        },
        {
          "indexed": true,
          "internalType": "address",
          "name": "to",
          "type": "address"
        },
        {
          "indexed": false,
          "internalType": "uint256",
          "name": "payid",
          "type": "uint256"
        },
        {
          "indexed": false,
          "internalType": "uint256",
          "name": "amount",
          "type": "uint256"
        },
        {
          "indexed": false,
          "internalType": "uint256",
          "name": "date",
          "type": "uint256"
        }
      ],
      "name": "PaymentDone",
      "type": "event"
    },
    {
      "inputs": [],
      "name": "contractOwner",
      "outputs": [
        {
          "internalType": "address",
          "name": "",
          "type": "address"
        }
      ],
      "stateMutability": "view",
      "type": "function",
      "constant": true
    },
    {
      "inputs": [],
      "name": "usdt",
      "outputs": [
        {
          "internalType": "contract IERC20",
          "name": "",
          "type": "address"
        }
      ],
      "stateMutability": "view",
      "type": "function",
      "constant": true
    },
    {
      "inputs": [
        {
          "internalType": "uint256",
          "name": "amount",
          "type": "uint256"
        },
        {
          "internalType": "uint256",
          "name": "payid",
          "type": "uint256"
        }
      ],
      "name": "pay",
      "outputs": [],
      "stateMutability": "nonpayable",
      "type": "function"
    }
  ],
  "bytecode": "0x608060405234801561001057600080fd5b506040516105da3803806105da833981810160405281019061003291906100cf565b816000806101000a81548173ffffffffffffffffffffffffffffffffffffffff021916908373ffffffffffffffffffffffffffffffffffffffff16021790555080600160006101000a81548173ffffffffffffffffffffffffffffffffffffffff021916908373ffffffffffffffffffffffffffffffffffffffff1602179055505050610154565b6000815190506100c98161013d565b92915050565b600080604083850312156100e257600080fd5b60006100f0858286016100ba565b9250506020610101858286016100ba565b9150509250929050565b60006101168261011d565b9050919050565b600073ffffffffffffffffffffffffffffffffffffffff82169050919050565b6101468161010b565b811461015157600080fd5b50565b610477806101636000396000f3fe608060405234801561001057600080fd5b50600436106100415760003560e01c80632f48ab7d14610046578063ce606ee014610064578063ef48eee614610082575b600080fd5b61004e61009e565b60405161005b9190610355565b60405180910390f35b61006c6100c4565b6040516100799190610303565b60405180910390f35b61009c6004803603810190610097919061029a565b6100e8565b005b600160009054906101000a900473ffffffffffffffffffffffffffffffffffffffff1681565b60008054906101000a900473ffffffffffffffffffffffffffffffffffffffff1681565b600160009054906101000a900473ffffffffffffffffffffffffffffffffffffffff1673ffffffffffffffffffffffffffffffffffffffff166323b872dd3360008054906101000a900473ffffffffffffffffffffffffffffffffffffffff16856040518463ffffffff1660e01b81526004016101679392919061031e565b602060405180830381600087803b15801561018157600080fd5b505af1158015610195573d6000803e3d6000fd5b505050506040513d601f19601f820116820180604052508101906101b99190610271565b5060008054906101000a900473ffffffffffffffffffffffffffffffffffffffff1673ffffffffffffffffffffffffffffffffffffffff163373ffffffffffffffffffffffffffffffffffffffff167fd723297224129702eafe8297b8eb4eee5597099c8ebd0d405c0eaa2021d5f0ed83854260405161023b93929190610370565b60405180910390a35050565b60008151905061025681610413565b92915050565b60008135905061026b8161042a565b92915050565b60006020828403121561028357600080fd5b600061029184828501610247565b91505092915050565b600080604083850312156102ad57600080fd5b60006102bb8582860161025c565b92505060206102cc8582860161025c565b9150509250929050565b6102df816103a7565b82525050565b6102ee816103ef565b82525050565b6102fd816103e5565b82525050565b600060208201905061031860008301846102d6565b92915050565b600060608201905061033360008301866102d6565b61034060208301856102d6565b61034d60408301846102f4565b949350505050565b600060208201905061036a60008301846102e5565b92915050565b600060608201905061038560008301866102f4565b61039260208301856102f4565b61039f60408301846102f4565b949350505050565b60006103b2826103c5565b9050919050565b60008115159050919050565b600073ffffffffffffffffffffffffffffffffffffffff82169050919050565b6000819050919050565b60006103fa82610401565b9050919050565b600061040c826103c5565b9050919050565b61041c816103b9565b811461042757600080fd5b50565b610433816103e5565b811461043e57600080fd5b5056fea2646970667358221220e882cb3dfd65e812dbd70d69f6298728624c6f54ed9a0f4095bdd750b5253ae264736f6c63430008040033",
  "immutableReferences": {},
  "source": "pragma solidity ^0.8.4;\n\nimport \"@openzeppelin/contracts/token/ERC20/IERC20.sol\";\n\ncontract paymentProccesor{\n  address public contractOwner;\n  IERC20 public usdt;\n\n  event PaymentDone(\n    address indexed from,\n    address indexed to,\n    uint payid,\n    uint amount,\n    uint date\n  );\n\n  constructor(address _contractOwner,address _usdt) public {\n    contractOwner = _contractOwner;\n    usdt = IERC20(_usdt);\n  }\n\n  function pay(uint amount, uint payid) external {\n    usdt.transferFrom(msg.sender, contractOwner, amount);\n    emit PaymentDone(msg.sender, contractOwner, payid, amount, block.timestamp);\n  }\n}\n",
  "sourcePath": "/Users/macbookpro/Desktop/usdt_payment_system/contracts/paymentProccesor.sol",
  "compiler": {
    "name": "solc",
    "version": "0.8.4+commit.c7e474f2.Emscripten.clang"
  },
  "schemaVersion": "3.4.14",
  "updatedAt": "2023-08-04T20:54:09.137Z",
  "networkType": "ethereum",
  "devdoc": {
    "kind": "dev",
    "methods": {},
    "version": 1
  },
  "userdoc": {
    "kind": "user",
    "methods": {},
    "version": 1
  }
}